:10000000C304A304030A1100C304A3046809C304BE
:10001000A3043000C304A3046909C304A30431008A
:10002000C304A3046A09C304A3043200C304A304E1
:100030006B09C304A3043300C304A3046C09C30401
:10004000A3043400C304A3046D09C304A30435004E
:10005000C304A3046E09C304A3043600C304A304A9
:100060006F09C304A3043700C304A3047009C304C5
:10007000A3043800C304A3047109C304A304390012
:10008000C304A3047209C304A3043A00C304A30471
:100090007309C304A3043B00C304A3047409C30489
:1000A000A3043C00C304A3047509C304A3043D00D6
:1000B000C304A3047609C304A3043E00C304A30439
:1000C0007709C304A3043F001000C304A304270B53
:1000D000A008B708C4088508930889088808B108EB
:1000E0008008810890088A08E8088608C808D808A7
:0C00F000C304A3059E0BC304A304B70ABD
:10016E0010007500F107BC0ABD0AC40A70027102C4
:10017E00B0024306B1027500B502F307C70AC80AFA
:10018E00D10A72027302B2024306B302010C2F00AF
:10019E000F02B50176007700100211014306D80A4E
:1001AE00D90A180B7400B402E70A010C2C000304E0
:1001BE0070037103EC02DE0A010C2F000F02F40132
:1001CE00F107EA0AEB0ADC0A010C2C0003047603A1
:1001DE007703EC02ED0A11022D0010022C000D0225
:1001EE0093004307FC0A0C0292000307FF0A000B60
:1001FE000B0B11022D0010022C000C02B2000D028E
:10020E000307F300B3001605010C2C0003043103A1
:10021E003003EC020D0B010CB4004307170B180B47
:10022E00EB0A150243061C0B1D0B220B76027702FE
:10023E00B6024306B70217023100160230001E0046
:10024E00FF0C0200FF0C0600C70C0700000C080094
:10025E0010006700FF0C280011006A00F70C2F0039
:10026E000F026701F70C2F000F0268010400100047
:10027E000707420B430B800B06022C006D000C028D
:10028E003A000D023B00A7051B022D001A022C009E
:10029E00040C2E004D032D032C03EE02510B0C0209
:1002AE002C00300CCC012400000228008704040C22
:1002BE0010003900E30C3800F802630BF902630BEF
:1002CE000000100087051A020F0E2C00300CCC0116
:1002DE002400000228006704040C10003900E30C0F
:1002EE003800F802780BF902780B00001000670551
:1002FE003D0B06022C006D000C023A000D023B0075
:10030E00640C3000000C31001B0233001A02320064
:10031E00C304A3047B09C304A304100010022C0021
:10032E0011022D000C022C00300CCC012400000216
:10033E002800640C3000000C31001B0233001A023E
:10034E003200C304A3047809C304A30410001102ED
:10035E003B0010023A00A704040C10003900E30C15
:10036E003800F802B80BF902B80B00001000A70510
:10037E000A0C3000000C31001B0233001A0232004E
:10038E00C304A3047B09C304A304100010022C00B1
:10039E0011022D000C022C00300CCC0124000002A6
:1003AE0028000A0C3000000C31001B0233001A0228
:1003BE003200C304A3047809C304A304100011027D
:1003CE003B0010023A008704040C10003900E30CC5
:1003DE003800F802F00BF902F00B00001000870550
:1003EE00300CDA01240000022800720BC304A304AF
:0203FE00000AF3
:10073C0010007500F307A30BA40BAB0B7202730232
:10074C00B2024306B3027500B502F107AE0BAF0B54
:10075C00B40B70027102B0024306B1021002110117
:10076C004306B90BBA0BF10B7400B402C80B010CA5
:10077C002C00030470037103EC02BF0B010C2F005F
:10078C000F02F401F107CB0BCC0BBD0B11022D00AA
:10079C0010022C000D0293004307D60B0C029200A2
:1007AC000307D90BDA0BE40B11022D0010022C00FD
:1007BC000C02B2000D020307F300B300010C2C0075
:1007CC00030431033003EC02E60B010CB4004307C5
:1007DC00F00BF10BCC0B15024306F50BF60BFB0BD8
:1007EC0072027302B2024306B30213023100120208
:0407FC0030001E00AB
:08108000FF0FFF0FFF0FFF0F30
:021FFE00BC0322
:00000001FF
