:020000040000FA
:10000000C304A304030A1100C304A3046809C304BE
:10001000A3043000C304A3046909C304A30431008A
:10002000C304A3046A09C304A3043200C304A304E1
:100030006B09C304A3043300C304A3046C09C30401
:10004000A3043400C304A3046D09C304A30435004E
:10005000C304A3046E09C304A3043600C304A304A9
:100060006F09C304A3043700C304A3047009C304C5
:10007000A3043800C304A3047109C304A304390012
:10008000C304A3047209C304A3043A00C304A30471
:100090007309C304A3043B00C304A3047409C30489
:1000A000A3043C00C304A3047509C304A3043D00D6
:1000B000C304A3047609C304A3043E00C304A30439
:1000C0007709C304A3043F001000C304A3042B0B4F
:1000D000A008B708C4088508930889088808B108EB
:1000E0008008810890088A08E8088608C808D808A7
:0C00F000C304A3059E0BC304A304BB0AB9
:1001760010007500F107C00AC10AC80A70027102B0
:10018600B0024306B1027500B502F307CB0ACC0AEA
:10019600D50A72027302B2024306B302010C2F00A3
:1001A6000F02B50176007700100211014306DC0A42
:1001B600DD0A1C0B7400B402EB0A010C2C000304CC
:1001C60070037103EC02E20A010C2F000F02F40126
:1001D600F107EE0AEF0AE00A010C2C00030476038D
:1001E6007703EC02F10A11022D0010022C000D0219
:1001F60093004307000B0C0292000307030B040B4A
:100206000F0B11022D0010022C000C02B2000D0281
:100216000307F300B3001605010C2C000304310399
:100226003003EC02110B010CB40043071B0B1C0B33
:10023600EF0A15024306200B210B260B76027702E6
:10024600B6024306B70217023100160230001E003E
:10025600FF0C0200FF0C0600C70C0700000C08008C
:1002660010006700FF0C280011006A00F70C2F0031
:100276000F026701F70C2F000F026801040010003F
:100286000707460B470B820B06022C006D000C027B
:100296003A000D023B00A7051B022D001A022C0096
:1002A600040C2E004D032D032C03EE02550B0C02FD
:1002B6002C00300CCC012400000228008704070C17
:1002C600100039007C0C3800F802670BF902670B46
:1002D600100087051A020F0E2C00300CCC012400EA
:1002E600000228006704070C100039007C0C380057
:1002F600F8027B0BF9027B0B10006705410B060227
:100306002C006D000C023A000D023B00640C30001C
:10031600000C31001B0233001A023200C304A3048E
:100326007B09C304A304100010022C0011022D0047
:100336000C022C00300CCC01240000022800640CB6
:100346003000000C31001B0233001A023200C304D5
:10035600A3047809C304A304100011023B00100291
:100366003A00A704070C100039007C0C3800F8028C
:10037600BA0BF902BA0B1000A7050A0C3000000CE4
:1003860031001B0233001A023200C304A3047B09A6
:10039600C304A304100010022C0011022D000C024D
:1003A6002C00300CCC012400000228000A0C30007E
:1003B600000C31001B0233001A023200C304A304EE
:1003C6007809C304A304100011023B0010023A008E
:1003D6008704070C100039007C0C3800F802F10B7A
:1003E600F902F10B10008705300CDA012400000237
:0A03F6002800750BC304A304000ADD
:10073C0010007500F307A30BA40BAB0B7202730232
:10074C00B2024306B3027500B502F107AE0BAF0B54
:10075C00B40B70027102B0024306B1021002110117
:10076C004306B90BBA0BF10B7400B402C80B010CA5
:10077C002C00030470037103EC02BF0B010C2F005F
:10078C000F02F401F107CB0BCC0BBD0B11022D00AA
:10079C0010022C000D0293004307D60B0C029200A2
:1007AC000307D90BDA0BE40B11022D0010022C00FD
:1007BC000C02B2000D020307F300B300010C2C0075
:1007CC00030431033003EC02E60B010CB4004307C5
:1007DC00F00BF10BCC0B15024306F50BF60BFB0BD8
:1007EC0072027302B2024306B30213023100120208
:0407FC0030001E00AB
:021FFE00BC0322
:00000001FF
